{
  "_format": "hh-sol-artifact-1",
  "contractName": "TierNFT",
  "sourceName": "contracts/TierNFT.sol",
  "abi": [
    {
      "inputs": [
        {
          "internalType": "string",
          "name": "_name",
          "type": "string"
        },
        {
          "internalType": "string",
          "name": "_symbol",
          "type": "string"
        }
      ],
      "stateMutability": "nonpayable",
      "type": "constructor"
    },
    {
      "inputs": [],
      "name": "ERC721EnumerableForbiddenBatchMint",
      "type": "error"
    },
    {
      "inputs": [
        {
          "internalType": "address",
          "name": "sender",
          "type": "address"
        },
        {
          "internalType": "uint256",
          "name": "tokenId",
          "type": "uint256"
        },
        {
          "internalType": "address",
          "name": "owner",
          "type": "address"
        }
      ],
      "name": "ERC721IncorrectOwner",
      "type": "error"
    },
    {
      "inputs": [
        {
          "internalType": "address",
          "name": "operator",
          "type": "address"
        },
        {
          "internalType": "uint256",
          "name": "tokenId",
          "type": "uint256"
        }
      ],
      "name": "ERC721InsufficientApproval",
      "type": "error"
    },
    {
      "inputs": [
        {
          "internalType": "address",
          "name": "approver",
          "type": "address"
        }
      ],
      "name": "ERC721InvalidApprover",
      "type": "error"
    },
    {
      "inputs": [
        {
          "internalType": "address",
          "name": "operator",
          "type": "address"
        }
      ],
      "name": "ERC721InvalidOperator",
      "type": "error"
    },
    {
      "inputs": [
        {
          "internalType": "address",
          "name": "owner",
          "type": "address"
        }
      ],
      "name": "ERC721InvalidOwner",
      "type": "error"
    },
    {
      "inputs": [
        {
          "internalType": "address",
          "name": "receiver",
          "type": "address"
        }
      ],
      "name": "ERC721InvalidReceiver",
      "type": "error"
    },
    {
      "inputs": [
        {
          "internalType": "address",
          "name": "sender",
          "type": "address"
        }
      ],
      "name": "ERC721InvalidSender",
      "type": "error"
    },
    {
      "inputs": [
        {
          "internalType": "uint256",
          "name": "tokenId",
          "type": "uint256"
        }
      ],
      "name": "ERC721NonexistentToken",
      "type": "error"
    },
    {
      "inputs": [
        {
          "internalType": "address",
          "name": "owner",
          "type": "address"
        },
        {
          "internalType": "uint256",
          "name": "index",
          "type": "uint256"
        }
      ],
      "name": "ERC721OutOfBoundsIndex",
      "type": "error"
    },
    {
      "inputs": [
        {
          "internalType": "address",
          "name": "owner",
          "type": "address"
        }
      ],
      "name": "OwnableInvalidOwner",
      "type": "error"
    },
    {
      "inputs": [
        {
          "internalType": "address",
          "name": "account",
          "type": "address"
        }
      ],
      "name": "OwnableUnauthorizedAccount",
      "type": "error"
    },
    {
      "anonymous": false,
      "inputs": [
        {
          "indexed": true,
          "internalType": "address",
          "name": "owner",
          "type": "address"
        },
        {
          "indexed": true,
          "internalType": "address",
          "name": "approved",
          "type": "address"
        },
        {
          "indexed": true,
          "internalType": "uint256",
          "name": "tokenId",
          "type": "uint256"
        }
      ],
      "name": "Approval",
      "type": "event"
    },
    {
      "anonymous": false,
      "inputs": [
        {
          "indexed": true,
          "internalType": "address",
          "name": "owner",
          "type": "address"
        },
        {
          "indexed": true,
          "internalType": "address",
          "name": "operator",
          "type": "address"
        },
        {
          "indexed": false,
          "internalType": "bool",
          "name": "approved",
          "type": "bool"
        }
      ],
      "name": "ApprovalForAll",
      "type": "event"
    },
    {
      "anonymous": false,
      "inputs": [
        {
          "indexed": false,
          "internalType": "uint256",
          "name": "_fromTokenId",
          "type": "uint256"
        },
        {
          "indexed": false,
          "internalType": "uint256",
          "name": "_toTokenId",
          "type": "uint256"
        }
      ],
      "name": "BatchMetadataUpdate",
      "type": "event"
    },
    {
      "anonymous": false,
      "inputs": [
        {
          "indexed": false,
          "internalType": "uint256",
          "name": "_tokenId",
          "type": "uint256"
        }
      ],
      "name": "MetadataUpdate",
      "type": "event"
    },
    {
      "anonymous": false,
      "inputs": [
        {
          "indexed": true,
          "internalType": "address",
          "name": "previousOwner",
          "type": "address"
        },
        {
          "indexed": true,
          "internalType": "address",
          "name": "newOwner",
          "type": "address"
        }
      ],
      "name": "OwnershipTransferred",
      "type": "event"
    },
    {
      "anonymous": false,
      "inputs": [
        {
          "indexed": true,
          "internalType": "address",
          "name": "from",
          "type": "address"
        },
        {
          "indexed": true,
          "internalType": "address",
          "name": "to",
          "type": "address"
        },
        {
          "indexed": true,
          "internalType": "uint256",
          "name": "tokenId",
          "type": "uint256"
        }
      ],
      "name": "Transfer",
      "type": "event"
    },
    {
      "inputs": [
        {
          "internalType": "uint256",
          "name": "tokenId",
          "type": "uint256"
        }
      ],
      "name": "_setTokenURI",
      "outputs": [],
      "stateMutability": "nonpayable",
      "type": "function"
    },
    {
      "inputs": [
        {
          "internalType": "address",
          "name": "to",
          "type": "address"
        },
        {
          "internalType": "uint256",
          "name": "tokenId",
          "type": "uint256"
        }
      ],
      "name": "approve",
      "outputs": [],
      "stateMutability": "nonpayable",
      "type": "function"
    },
    {
      "inputs": [
        {
          "internalType": "address",
          "name": "owner",
          "type": "address"
        }
      ],
      "name": "balanceOf",
      "outputs": [
        {
          "internalType": "uint256",
          "name": "",
          "type": "uint256"
        }
      ],
      "stateMutability": "view",
      "type": "function"
    },
    {
      "inputs": [
        {
          "internalType": "uint256",
          "name": "tokenId",
          "type": "uint256"
        }
      ],
      "name": "getApproved",
      "outputs": [
        {
          "internalType": "address",
          "name": "",
          "type": "address"
        }
      ],
      "stateMutability": "view",
      "type": "function"
    },
    {
      "inputs": [
        {
          "internalType": "address",
          "name": "owner",
          "type": "address"
        },
        {
          "internalType": "address",
          "name": "operator",
          "type": "address"
        }
      ],
      "name": "isApprovedForAll",
      "outputs": [
        {
          "internalType": "bool",
          "name": "",
          "type": "bool"
        }
      ],
      "stateMutability": "view",
      "type": "function"
    },
    {
      "inputs": [],
      "name": "name",
      "outputs": [
        {
          "internalType": "string",
          "name": "",
          "type": "string"
        }
      ],
      "stateMutability": "view",
      "type": "function"
    },
    {
      "inputs": [],
      "name": "owner",
      "outputs": [
        {
          "internalType": "address",
          "name": "",
          "type": "address"
        }
      ],
      "stateMutability": "view",
      "type": "function"
    },
    {
      "inputs": [
        {
          "internalType": "uint256",
          "name": "tokenId",
          "type": "uint256"
        }
      ],
      "name": "ownerOf",
      "outputs": [
        {
          "internalType": "address",
          "name": "",
          "type": "address"
        }
      ],
      "stateMutability": "view",
      "type": "function"
    },
    {
      "inputs": [],
      "name": "renounceOwnership",
      "outputs": [],
      "stateMutability": "nonpayable",
      "type": "function"
    },
    {
      "inputs": [],
      "name": "safeMint",
      "outputs": [],
      "stateMutability": "payable",
      "type": "function"
    },
    {
      "inputs": [
        {
          "internalType": "address",
          "name": "from",
          "type": "address"
        },
        {
          "internalType": "address",
          "name": "to",
          "type": "address"
        },
        {
          "internalType": "uint256",
          "name": "tokenId",
          "type": "uint256"
        }
      ],
      "name": "safeTransferFrom",
      "outputs": [],
      "stateMutability": "nonpayable",
      "type": "function"
    },
    {
      "inputs": [
        {
          "internalType": "address",
          "name": "from",
          "type": "address"
        },
        {
          "internalType": "address",
          "name": "to",
          "type": "address"
        },
        {
          "internalType": "uint256",
          "name": "tokenId",
          "type": "uint256"
        },
        {
          "internalType": "bytes",
          "name": "data",
          "type": "bytes"
        }
      ],
      "name": "safeTransferFrom",
      "outputs": [],
      "stateMutability": "nonpayable",
      "type": "function"
    },
    {
      "inputs": [
        {
          "internalType": "address",
          "name": "operator",
          "type": "address"
        },
        {
          "internalType": "bool",
          "name": "approved",
          "type": "bool"
        }
      ],
      "name": "setApprovalForAll",
      "outputs": [],
      "stateMutability": "nonpayable",
      "type": "function"
    },
    {
      "inputs": [
        {
          "internalType": "bytes4",
          "name": "interfaceId",
          "type": "bytes4"
        }
      ],
      "name": "supportsInterface",
      "outputs": [
        {
          "internalType": "bool",
          "name": "",
          "type": "bool"
        }
      ],
      "stateMutability": "view",
      "type": "function"
    },
    {
      "inputs": [],
      "name": "symbol",
      "outputs": [
        {
          "internalType": "string",
          "name": "",
          "type": "string"
        }
      ],
      "stateMutability": "view",
      "type": "function"
    },
    {
      "inputs": [
        {
          "internalType": "uint256",
          "name": "index",
          "type": "uint256"
        }
      ],
      "name": "tokenByIndex",
      "outputs": [
        {
          "internalType": "uint256",
          "name": "",
          "type": "uint256"
        }
      ],
      "stateMutability": "view",
      "type": "function"
    },
    {
      "inputs": [
        {
          "internalType": "address",
          "name": "owner",
          "type": "address"
        },
        {
          "internalType": "uint256",
          "name": "index",
          "type": "uint256"
        }
      ],
      "name": "tokenOfOwnerByIndex",
      "outputs": [
        {
          "internalType": "uint256",
          "name": "",
          "type": "uint256"
        }
      ],
      "stateMutability": "view",
      "type": "function"
    },
    {
      "inputs": [
        {
          "internalType": "uint256",
          "name": "",
          "type": "uint256"
        }
      ],
      "name": "tokenTier",
      "outputs": [
        {
          "internalType": "uint256",
          "name": "",
          "type": "uint256"
        }
      ],
      "stateMutability": "view",
      "type": "function"
    },
    {
      "inputs": [
        {
          "internalType": "uint256",
          "name": "tokenId",
          "type": "uint256"
        }
      ],
      "name": "tokenURI",
      "outputs": [
        {
          "internalType": "string",
          "name": "",
          "type": "string"
        }
      ],
      "stateMutability": "view",
      "type": "function"
    },
    {
      "inputs": [],
      "name": "totalSupply",
      "outputs": [
        {
          "internalType": "uint256",
          "name": "",
          "type": "uint256"
        }
      ],
      "stateMutability": "view",
      "type": "function"
    },
    {
      "inputs": [
        {
          "internalType": "address",
          "name": "from",
          "type": "address"
        },
        {
          "internalType": "address",
          "name": "to",
          "type": "address"
        },
        {
          "internalType": "uint256",
          "name": "tokenId",
          "type": "uint256"
        }
      ],
      "name": "transferFrom",
      "outputs": [],
      "stateMutability": "nonpayable",
      "type": "function"
    },
    {
      "inputs": [
        {
          "internalType": "address",
          "name": "newOwner",
          "type": "address"
        }
      ],
      "name": "transferOwnership",
      "outputs": [],
      "stateMutability": "nonpayable",
      "type": "function"
    },
    {
      "inputs": [],
      "name": "withdraw",
      "outputs": [],
      "stateMutability": "nonpayable",
      "type": "function"
    }
  ],
  "bytecode": "0x608060405234801562000010575f80fd5b50604051620044cb380380620044cb833981810160405281019062000036919062000333565b338282815f9081620000499190620005ed565b5080600190816200005b9190620005ed565b5050505f73ffffffffffffffffffffffffffffffffffffffff168173ffffffffffffffffffffffffffffffffffffffff1603620000d1575f6040517f1e4fbdf7000000000000000000000000000000000000000000000000000000008152600401620000c8919062000714565b60405180910390fd5b620000e281620000eb60201b60201c565b5050506200072f565b5f60065f9054906101000a900473ffffffffffffffffffffffffffffffffffffffff1690508160065f6101000a81548173ffffffffffffffffffffffffffffffffffffffff021916908373ffffffffffffffffffffffffffffffffffffffff1602179055508173ffffffffffffffffffffffffffffffffffffffff168173ffffffffffffffffffffffffffffffffffffffff167f8be0079c531659141344cd1fd0a4f28419497f9722a3daafe3b4186f6b6457e060405160405180910390a35050565b5f604051905090565b5f80fd5b5f80fd5b5f80fd5b5f80fd5b5f601f19601f8301169050919050565b7f4e487b71000000000000000000000000000000000000000000000000000000005f52604160045260245ffd5b6200020f82620001c7565b810181811067ffffffffffffffff82111715620002315762000230620001d7565b5b80604052505050565b5f62000245620001ae565b905062000253828262000204565b919050565b5f67ffffffffffffffff821115620002755762000274620001d7565b5b6200028082620001c7565b9050602081019050919050565b5f5b83811015620002ac5780820151818401526020810190506200028f565b5f8484015250505050565b5f620002cd620002c78462000258565b6200023a565b905082815260208101848484011115620002ec57620002eb620001c3565b5b620002f98482856200028d565b509392505050565b5f82601f830112620003185762000317620001bf565b5b81516200032a848260208601620002b7565b91505092915050565b5f80604083850312156200034c576200034b620001b7565b5b5f83015167ffffffffffffffff8111156200036c576200036b620001bb565b5b6200037a8582860162000301565b925050602083015167ffffffffffffffff8111156200039e576200039d620001bb565b5b620003ac8582860162000301565b9150509250929050565b5f81519050919050565b7f4e487b71000000000000000000000000000000000000000000000000000000005f52602260045260245ffd5b5f60028204905060018216806200040557607f821691505b6020821081036200041b576200041a620003c0565b5b50919050565b5f819050815f5260205f209050919050565b5f6020601f8301049050919050565b5f82821b905092915050565b5f600883026200047f7fffffffffffffffffffffffffffffffffffffffffffffffffffffffffffffffff8262000442565b6200048b868362000442565b95508019841693508086168417925050509392505050565b5f819050919050565b5f819050919050565b5f620004d5620004cf620004c984620004a3565b620004ac565b620004a3565b9050919050565b5f819050919050565b620004f083620004b5565b62000508620004ff82620004dc565b8484546200044e565b825550505050565b5f90565b6200051e62000510565b6200052b818484620004e5565b505050565b5b818110156200055257620005465f8262000514565b60018101905062000531565b5050565b601f821115620005a1576200056b8162000421565b620005768462000433565b8101602085101562000586578190505b6200059e620005958562000433565b83018262000530565b50505b505050565b5f82821c905092915050565b5f620005c35f1984600802620005a6565b1980831691505092915050565b5f620005dd8383620005b2565b9150826002028217905092915050565b620005f882620003b6565b67ffffffffffffffff811115620006145762000613620001d7565b5b620006208254620003ed565b6200062d82828562000556565b5f60209050601f83116001811462000663575f84156200064e578287015190505b6200065a8582620005d0565b865550620006c9565b601f198416620006738662000421565b5f5b828110156200069c5784890151825560018201915060208501945060208101905062000675565b86831015620006bc5784890151620006b8601f891682620005b2565b8355505b6001600288020188555050505b505050505050565b5f73ffffffffffffffffffffffffffffffffffffffff82169050919050565b5f620006fc82620006d1565b9050919050565b6200070e81620006f0565b82525050565b5f602082019050620007295f83018462000703565b92915050565b613d8e806200073d5f395ff3fe60806040526004361061013f575f3560e01c80636352211e116100b557806395d89b411161006e57806395d89b411461043b578063a22cb46514610465578063b88d4fde1461048d578063c87b56dd146104b5578063e985e9c5146104f1578063f2fde38b1461052d5761013f565b80636352211e1461033d578063649e705f146103795780636871ee40146103b557806370a08231146103bf578063715018a6146103fb5780638da5cb5b146104115761013f565b806323b872dd1161010757806323b872dd146102375780632e4b7ec21461025f5780632f745c59146102875780633ccfd60b146102c357806342842e0e146102d95780634f6ccce7146103015761013f565b806301ffc9a71461014357806306fdde031461017f578063081812fc146101a9578063095ea7b3146101e557806318160ddd1461020d575b5f80fd5b34801561014e575f80fd5b506101696004803603810190610164919061270f565b610555565b6040516101769190612754565b60405180910390f35b34801561018a575f80fd5b50610193610566565b6040516101a091906127f7565b60405180910390f35b3480156101b4575f80fd5b506101cf60048036038101906101ca919061284a565b6105f5565b6040516101dc91906128b4565b60405180910390f35b3480156101f0575f80fd5b5061020b600480360381019061020691906128f7565b610610565b005b348015610218575f80fd5b50610221610626565b60405161022e9190612944565b60405180910390f35b348015610242575f80fd5b5061025d6004803603810190610258919061295d565b610632565b005b34801561026a575f80fd5b506102856004803603810190610280919061284a565b610731565b005b348015610292575f80fd5b506102ad60048036038101906102a891906128f7565b61094c565b6040516102ba9190612944565b60405180910390f35b3480156102ce575f80fd5b506102d76109f0565b005b3480156102e4575f80fd5b506102ff60048036038101906102fa919061295d565b610af1565b005b34801561030c575f80fd5b506103276004803603810190610322919061284a565b610b10565b6040516103349190612944565b60405180910390f35b348015610348575f80fd5b50610363600480360381019061035e919061284a565b610b82565b60405161037091906128b4565b60405180910390f35b348015610384575f80fd5b5061039f600480360381019061039a919061284a565b610b93565b6040516103ac9190612944565b60405180910390f35b6103bd610ba8565b005b3480156103ca575f80fd5b506103e560048036038101906103e091906129ad565b610c64565b6040516103f29190612944565b60405180910390f35b348015610406575f80fd5b5061040f610d1a565b005b34801561041c575f80fd5b50610425610d2d565b60405161043291906128b4565b60405180910390f35b348015610446575f80fd5b5061044f610d55565b60405161045c91906127f7565b60405180910390f35b348015610470575f80fd5b5061048b60048036038101906104869190612a02565b610de5565b005b348015610498575f80fd5b506104b360048036038101906104ae9190612b6c565b610dfb565b005b3480156104c0575f80fd5b506104db60048036038101906104d6919061284a565b610e18565b6040516104e891906127f7565b60405180910390f35b3480156104fc575f80fd5b5061051760048036038101906105129190612bec565b610e2a565b6040516105249190612754565b60405180910390f35b348015610538575f80fd5b50610553600480360381019061054e91906129ad565b610eb8565b005b5f61055f82610f3c565b9050919050565b60605f805461057490612c57565b80601f01602080910402602001604051908101604052809291908181526020018280546105a090612c57565b80156105eb5780601f106105c2576101008083540402835291602001916105eb565b820191905f5260205f20905b8154815290600101906020018083116105ce57829003601f168201915b5050505050905090565b5f6105ff82610f9c565b5061060982611022565b9050919050565b610622828261061d61105b565b611062565b5050565b5f600980549050905090565b5f73ffffffffffffffffffffffffffffffffffffffff168273ffffffffffffffffffffffffffffffffffffffff16036106a2575f6040517f64a0ae9200000000000000000000000000000000000000000000000000000000815260040161069991906128b4565b60405180910390fd5b5f6106b583836106b061105b565b611074565b90508373ffffffffffffffffffffffffffffffffffffffff168173ffffffffffffffffffffffffffffffffffffffff161461072b578382826040517f64283d7b00000000000000000000000000000000000000000000000000000000815260040161072293929190612c87565b60405180910390fd5b50505050565b610739610626565b81111561077b576040517f08c379a000000000000000000000000000000000000000000000000000000000815260040161077290612d06565b60405180910390fd5b5f6002600c5f8481526020019081526020015f205414610825576001600c5f8481526020019081526020015f2054146107e9576040518060400160405280600581526020017f4261736963000000000000000000000000000000000000000000000000000000815250610820565b6040518060400160405280600681526020017f4d656469756d00000000000000000000000000000000000000000000000000008152505b61085c565b6040518060400160405280600781526020017f5072656d69756d000000000000000000000000000000000000000000000000008152505b90505f6040518061060001604052806105c581526020016137546105c59139826040518060400160405280601181526020017f3c2f746578743e3c2f673e3c2f7376673e0000000000000000000000000000008152506040516020016108c493929190612d5e565b60405160208183030381529060405290505f61091b6108e1610566565b6108ea86611089565b6108f385611153565b866040516020016109079493929190612f72565b604051602081830303815290604052611153565b905061094684826040516020016109329190613030565b6040516020818303038152906040526112b2565b50505050565b5f61095683610c64565b821061099b5782826040517fa57d13dc000000000000000000000000000000000000000000000000000000008152600401610992929190613051565b60405180910390fd5b60075f8473ffffffffffffffffffffffffffffffffffffffff1673ffffffffffffffffffffffffffffffffffffffff1681526020019081526020015f205f8381526020019081526020015f2054905092915050565b6109f861130c565b5f4790505f8111610a3e576040517f08c379a0000000000000000000000000000000000000000000000000000000008152600401610a35906130c2565b60405180910390fd5b5f610a47610d2d565b73ffffffffffffffffffffffffffffffffffffffff1682604051610a6a9061310d565b5f6040518083038185875af1925050503d805f8114610aa4576040519150601f19603f3d011682016040523d82523d5f602084013e610aa9565b606091505b5050905080610aed576040517f08c379a0000000000000000000000000000000000000000000000000000000008152600401610ae49061316b565b60405180910390fd5b5050565b610b0b83838360405180602001604052805f815250610dfb565b505050565b5f610b19610626565b8210610b5e575f826040517fa57d13dc000000000000000000000000000000000000000000000000000000008152600401610b55929190613051565b60405180910390fd5b60098281548110610b7257610b71613189565b5b905f5260205f2001549050919050565b5f610b8c82610f9c565b9050919050565b600c602052805f5260405f205f915090505481565b662386f26fc10000341015610bf2576040517f08c379a0000000000000000000000000000000000000000000000000000000008152600401610be990613226565b60405180910390fd5b5f66b1a2bc2ec500003410610c0a5760029050610c1e565b66470de4df8200003410610c1d57600190505b5b5f600d5f815480929190610c3190613271565b919050559050610c413382611393565b610c4a81610731565b81600c5f8381526020019081526020015f20819055505050565b5f8073ffffffffffffffffffffffffffffffffffffffff168273ffffffffffffffffffffffffffffffffffffffff1603610cd5575f6040517f89c62b64000000000000000000000000000000000000000000000000000000008152600401610ccc91906128b4565b60405180910390fd5b60035f8373ffffffffffffffffffffffffffffffffffffffff1673ffffffffffffffffffffffffffffffffffffffff1681526020019081526020015f20549050919050565b610d2261130c565b610d2b5f6113b0565b565b5f60065f9054906101000a900473ffffffffffffffffffffffffffffffffffffffff16905090565b606060018054610d6490612c57565b80601f0160208091040260200160405190810160405280929190818152602001828054610d9090612c57565b8015610ddb5780601f10610db257610100808354040283529160200191610ddb565b820191905f5260205f20905b815481529060010190602001808311610dbe57829003601f168201915b5050505050905090565b610df7610df061105b565b8383611473565b5050565b610e06848484610632565b610e12848484846115dc565b50505050565b6060610e238261178e565b9050919050565b5f60055f8473ffffffffffffffffffffffffffffffffffffffff1673ffffffffffffffffffffffffffffffffffffffff1681526020019081526020015f205f8373ffffffffffffffffffffffffffffffffffffffff1673ffffffffffffffffffffffffffffffffffffffff1681526020019081526020015f205f9054906101000a900460ff16905092915050565b610ec061130c565b5f73ffffffffffffffffffffffffffffffffffffffff168173ffffffffffffffffffffffffffffffffffffffff1603610f30575f6040517f1e4fbdf7000000000000000000000000000000000000000000000000000000008152600401610f2791906128b4565b60405180910390fd5b610f39816113b0565b50565b5f634906490660e01b7bffffffffffffffffffffffffffffffffffffffffffffffffffffffff1916827bffffffffffffffffffffffffffffffffffffffffffffffffffffffff19161480610f955750610f9482611899565b5b9050919050565b5f80610fa783611912565b90505f73ffffffffffffffffffffffffffffffffffffffff168173ffffffffffffffffffffffffffffffffffffffff160361101957826040517f7e2732890000000000000000000000000000000000000000000000000000000081526004016110109190612944565b60405180910390fd5b80915050919050565b5f60045f8381526020019081526020015f205f9054906101000a900473ffffffffffffffffffffffffffffffffffffffff169050919050565b5f33905090565b61106f838383600161194b565b505050565b5f611080848484611b0a565b90509392505050565b60605f600161109784611c24565b0190505f8167ffffffffffffffff8111156110b5576110b4612a48565b5b6040519080825280601f01601f1916602001820160405280156110e75781602001600182028036833780820191505090505b5090505f82602001820190505b600115611148578080600190039150507f3031323334353637383961626364656600000000000000000000000000000000600a86061a8153600a858161113d5761113c6132b8565b5b0494505f85036110f4575b819350505050919050565b60605f8251036111735760405180602001604052805f81525090506112ad565b5f604051806060016040528060408152602001613d196040913990505f6003600285516111a091906132e5565b6111aa9190613318565b60046111b69190613348565b67ffffffffffffffff8111156111cf576111ce612a48565b5b6040519080825280601f01601f1916602001820160405280156112015781602001600182028036833780820191505090505b509050600182016020820185865187015b8082101561126d576003820191508151603f8160121c168501518453600184019350603f81600c1c168501518453600184019350603f8160061c168501518453600184019350603f8116850151845360018401935050611212565b5050600386510660018114611289576002811461129c576112a4565b603d6001830353603d60028303536112a4565b603d60018303535b50505080925050505b919050565b80600b5f8481526020019081526020015f2090816112d09190613526565b507ff8e1a15aba9398e019f0b49df1a4fde98ee17ae345cb5f6b5e2c27f5033e8ce7826040516113009190612944565b60405180910390a15050565b61131461105b565b73ffffffffffffffffffffffffffffffffffffffff16611332610d2d565b73ffffffffffffffffffffffffffffffffffffffff16146113915761135561105b565b6040517f118cdaa700000000000000000000000000000000000000000000000000000000815260040161138891906128b4565b60405180910390fd5b565b6113ac828260405180602001604052805f815250611d75565b5050565b5f60065f9054906101000a900473ffffffffffffffffffffffffffffffffffffffff1690508160065f6101000a81548173ffffffffffffffffffffffffffffffffffffffff021916908373ffffffffffffffffffffffffffffffffffffffff1602179055508173ffffffffffffffffffffffffffffffffffffffff168173ffffffffffffffffffffffffffffffffffffffff167f8be0079c531659141344cd1fd0a4f28419497f9722a3daafe3b4186f6b6457e060405160405180910390a35050565b5f73ffffffffffffffffffffffffffffffffffffffff168273ffffffffffffffffffffffffffffffffffffffff16036114e357816040517f5b08ba180000000000000000000000000000000000000000000000000000000081526004016114da91906128b4565b60405180910390fd5b8060055f8573ffffffffffffffffffffffffffffffffffffffff1673ffffffffffffffffffffffffffffffffffffffff1681526020019081526020015f205f8473ffffffffffffffffffffffffffffffffffffffff1673ffffffffffffffffffffffffffffffffffffffff1681526020019081526020015f205f6101000a81548160ff0219169083151502179055508173ffffffffffffffffffffffffffffffffffffffff168373ffffffffffffffffffffffffffffffffffffffff167f17307eab39ab6107e8899845ad3d59bd9653f200f220920489ca2b5937696c31836040516115cf9190612754565b60405180910390a3505050565b5f8373ffffffffffffffffffffffffffffffffffffffff163b1115611788578273ffffffffffffffffffffffffffffffffffffffff1663150b7a0261161f61105b565b8685856040518563ffffffff1660e01b81526004016116419493929190613647565b6020604051808303815f875af192505050801561167c57506040513d601f19601f8201168201806040525081019061167991906136a5565b60015b6116fd573d805f81146116aa576040519150601f19603f3d011682016040523d82523d5f602084013e6116af565b606091505b505f8151036116f557836040517f64a0ae920000000000000000000000000000000000000000000000000000000081526004016116ec91906128b4565b60405180910390fd5b805181602001fd5b63150b7a0260e01b7bffffffffffffffffffffffffffffffffffffffffffffffffffffffff1916817bffffffffffffffffffffffffffffffffffffffffffffffffffffffff19161461178657836040517f64a0ae9200000000000000000000000000000000000000000000000000000000815260040161177d91906128b4565b60405180910390fd5b505b50505050565b606061179982610f9c565b505f600b5f8481526020019081526020015f2080546117b790612c57565b80601f01602080910402602001604051908101604052809291908181526020018280546117e390612c57565b801561182e5780601f106118055761010080835404028352916020019161182e565b820191905f5260205f20905b81548152906001019060200180831161181157829003601f168201915b505050505090505f61183e611d90565b90505f815103611852578192505050611894565b5f8251111561188657808260405160200161186e9291906136d0565b60405160208183030381529060405292505050611894565b61188f84611da6565b925050505b919050565b5f7f780e9d63000000000000000000000000000000000000000000000000000000007bffffffffffffffffffffffffffffffffffffffffffffffffffffffff1916827bffffffffffffffffffffffffffffffffffffffffffffffffffffffff1916148061190b575061190a82611e0c565b5b9050919050565b5f60025f8381526020019081526020015f205f9054906101000a900473ffffffffffffffffffffffffffffffffffffffff169050919050565b808061198357505f73ffffffffffffffffffffffffffffffffffffffff168273ffffffffffffffffffffffffffffffffffffffff1614155b15611ab5575f61199284610f9c565b90505f73ffffffffffffffffffffffffffffffffffffffff168373ffffffffffffffffffffffffffffffffffffffff16141580156119fc57508273ffffffffffffffffffffffffffffffffffffffff168173ffffffffffffffffffffffffffffffffffffffff1614155b8015611a0f5750611a0d8184610e2a565b155b15611a5157826040517fa9fbf51f000000000000000000000000000000000000000000000000000000008152600401611a4891906128b4565b60405180910390fd5b8115611ab357838573ffffffffffffffffffffffffffffffffffffffff168273ffffffffffffffffffffffffffffffffffffffff167f8c5be1e5ebec7d5bd14f71427d1e84f3dd0314c0f7b2291e5b200ac8c7c3b92560405160405180910390a45b505b8360045f8581526020019081526020015f205f6101000a81548173ffffffffffffffffffffffffffffffffffffffff021916908373ffffffffffffffffffffffffffffffffffffffff16021790555050505050565b5f80611b17858585611eed565b90505f73ffffffffffffffffffffffffffffffffffffffff168173ffffffffffffffffffffffffffffffffffffffff1603611b5a57611b55846120f8565b611b99565b8473ffffffffffffffffffffffffffffffffffffffff168173ffffffffffffffffffffffffffffffffffffffff1614611b9857611b97818561213c565b5b5b5f73ffffffffffffffffffffffffffffffffffffffff168573ffffffffffffffffffffffffffffffffffffffff1603611bda57611bd584612286565b611c19565b8473ffffffffffffffffffffffffffffffffffffffff168173ffffffffffffffffffffffffffffffffffffffff1614611c1857611c178585612346565b5b5b809150509392505050565b5f805f90507a184f03e93ff9f4daa797ed6e38ed64bf6a1f0100000000000000008310611c80577a184f03e93ff9f4daa797ed6e38ed64bf6a1f0100000000000000008381611c7657611c756132b8565b5b0492506040810190505b6d04ee2d6d415b85acef81000000008310611cbd576d04ee2d6d415b85acef81000000008381611cb357611cb26132b8565b5b0492506020810190505b662386f26fc100008310611cec57662386f26fc100008381611ce257611ce16132b8565b5b0492506010810190505b6305f5e1008310611d15576305f5e1008381611d0b57611d0a6132b8565b5b0492506008810190505b6127108310611d3a576127108381611d3057611d2f6132b8565b5b0492506004810190505b60648310611d5d5760648381611d5357611d526132b8565b5b0492506002810190505b600a8310611d6c576001810190505b80915050919050565b611d7f83836123ca565b611d8b5f8484846115dc565b505050565b606060405180602001604052805f815250905090565b6060611db182610f9c565b505f611dbb611d90565b90505f815111611dd95760405180602001604052805f815250611e04565b80611de384611089565b604051602001611df49291906136d0565b6040516020818303038152906040525b915050919050565b5f7f80ac58cd000000000000000000000000000000000000000000000000000000007bffffffffffffffffffffffffffffffffffffffffffffffffffffffff1916827bffffffffffffffffffffffffffffffffffffffffffffffffffffffff19161480611ed657507f5b5e139f000000000000000000000000000000000000000000000000000000007bffffffffffffffffffffffffffffffffffffffffffffffffffffffff1916827bffffffffffffffffffffffffffffffffffffffffffffffffffffffff1916145b80611ee65750611ee5826124bd565b5b9050919050565b5f80611ef884611912565b90505f73ffffffffffffffffffffffffffffffffffffffff168373ffffffffffffffffffffffffffffffffffffffff1614611f3957611f38818486612526565b5b5f73ffffffffffffffffffffffffffffffffffffffff168173ffffffffffffffffffffffffffffffffffffffff1614611fc457611f785f855f8061194b565b600160035f8373ffffffffffffffffffffffffffffffffffffffff1673ffffffffffffffffffffffffffffffffffffffff1681526020019081526020015f205f82825403925050819055505b5f73ffffffffffffffffffffffffffffffffffffffff168573ffffffffffffffffffffffffffffffffffffffff161461204357600160035f8773ffffffffffffffffffffffffffffffffffffffff1673ffffffffffffffffffffffffffffffffffffffff1681526020019081526020015f205f82825401925050819055505b8460025f8681526020019081526020015f205f6101000a81548173ffffffffffffffffffffffffffffffffffffffff021916908373ffffffffffffffffffffffffffffffffffffffff160217905550838573ffffffffffffffffffffffffffffffffffffffff168273ffffffffffffffffffffffffffffffffffffffff167fddf252ad1be2c89b69c2b068fc378daa952ba7f163c4a11628f55a4df523b3ef60405160405180910390a4809150509392505050565b600980549050600a5f8381526020019081526020015f2081905550600981908060018154018082558091505060019003905f5260205f20015f909190919091505550565b5f61214683610c64565b90505f60085f8481526020019081526020015f2054905081811461221d575f60075f8673ffffffffffffffffffffffffffffffffffffffff1673ffffffffffffffffffffffffffffffffffffffff1681526020019081526020015f205f8481526020019081526020015f205490508060075f8773ffffffffffffffffffffffffffffffffffffffff1673ffffffffffffffffffffffffffffffffffffffff1681526020019081526020015f205f8481526020019081526020015f20819055508160085f8381526020019081526020015f2081905550505b60085f8481526020019081526020015f205f905560075f8573ffffffffffffffffffffffffffffffffffffffff1673ffffffffffffffffffffffffffffffffffffffff1681526020019081526020015f205f8381526020019081526020015f205f905550505050565b5f600160098054905061229991906136f3565b90505f600a5f8481526020019081526020015f205490505f600983815481106122c5576122c4613189565b5b905f5260205f200154905080600983815481106122e5576122e4613189565b5b905f5260205f20018190555081600a5f8381526020019081526020015f2081905550600a5f8581526020019081526020015f205f9055600980548061232d5761232c613726565b5b600190038181905f5260205f20015f9055905550505050565b5f600161235284610c64565b61235c91906136f3565b90508160075f8573ffffffffffffffffffffffffffffffffffffffff1673ffffffffffffffffffffffffffffffffffffffff1681526020019081526020015f205f8381526020019081526020015f20819055508060085f8481526020019081526020015f2081905550505050565b5f73ffffffffffffffffffffffffffffffffffffffff168273ffffffffffffffffffffffffffffffffffffffff160361243a575f6040517f64a0ae9200000000000000000000000000000000000000000000000000000000815260040161243191906128b4565b60405180910390fd5b5f61244683835f611074565b90505f73ffffffffffffffffffffffffffffffffffffffff168173ffffffffffffffffffffffffffffffffffffffff16146124b8575f6040517f73c6ac6e0000000000000000000000000000000000000000000000000000000081526004016124af91906128b4565b60405180910390fd5b505050565b5f7f01ffc9a7000000000000000000000000000000000000000000000000000000007bffffffffffffffffffffffffffffffffffffffffffffffffffffffff1916827bffffffffffffffffffffffffffffffffffffffffffffffffffffffff1916149050919050565b6125318383836125e9565b6125e4575f73ffffffffffffffffffffffffffffffffffffffff168373ffffffffffffffffffffffffffffffffffffffff16036125a557806040517f7e27328900000000000000000000000000000000000000000000000000000000815260040161259c9190612944565b60405180910390fd5b81816040517f177e802f0000000000000000000000000000000000000000000000000000000081526004016125db929190613051565b60405180910390fd5b505050565b5f8073ffffffffffffffffffffffffffffffffffffffff168373ffffffffffffffffffffffffffffffffffffffff16141580156126a057508273ffffffffffffffffffffffffffffffffffffffff168473ffffffffffffffffffffffffffffffffffffffff16148061266157506126608484610e2a565b5b8061269f57508273ffffffffffffffffffffffffffffffffffffffff1661268783611022565b73ffffffffffffffffffffffffffffffffffffffff16145b5b90509392505050565b5f604051905090565b5f80fd5b5f80fd5b5f7fffffffff0000000000000000000000000000000000000000000000000000000082169050919050565b6126ee816126ba565b81146126f8575f80fd5b50565b5f81359050612709816126e5565b92915050565b5f60208284031215612724576127236126b2565b5b5f612731848285016126fb565b91505092915050565b5f8115159050919050565b61274e8161273a565b82525050565b5f6020820190506127675f830184612745565b92915050565b5f81519050919050565b5f82825260208201905092915050565b5f5b838110156127a4578082015181840152602081019050612789565b5f8484015250505050565b5f601f19601f8301169050919050565b5f6127c98261276d565b6127d38185612777565b93506127e3818560208601612787565b6127ec816127af565b840191505092915050565b5f6020820190508181035f83015261280f81846127bf565b905092915050565b5f819050919050565b61282981612817565b8114612833575f80fd5b50565b5f8135905061284481612820565b92915050565b5f6020828403121561285f5761285e6126b2565b5b5f61286c84828501612836565b91505092915050565b5f73ffffffffffffffffffffffffffffffffffffffff82169050919050565b5f61289e82612875565b9050919050565b6128ae81612894565b82525050565b5f6020820190506128c75f8301846128a5565b92915050565b6128d681612894565b81146128e0575f80fd5b50565b5f813590506128f1816128cd565b92915050565b5f806040838503121561290d5761290c6126b2565b5b5f61291a858286016128e3565b925050602061292b85828601612836565b9150509250929050565b61293e81612817565b82525050565b5f6020820190506129575f830184612935565b92915050565b5f805f60608486031215612974576129736126b2565b5b5f612981868287016128e3565b9350506020612992868287016128e3565b92505060406129a386828701612836565b9150509250925092565b5f602082840312156129c2576129c16126b2565b5b5f6129cf848285016128e3565b91505092915050565b6129e18161273a565b81146129eb575f80fd5b50565b5f813590506129fc816129d8565b92915050565b5f8060408385031215612a1857612a176126b2565b5b5f612a25858286016128e3565b9250506020612a36858286016129ee565b9150509250929050565b5f80fd5b5f80fd5b7f4e487b71000000000000000000000000000000000000000000000000000000005f52604160045260245ffd5b612a7e826127af565b810181811067ffffffffffffffff82111715612a9d57612a9c612a48565b5b80604052505050565b5f612aaf6126a9565b9050612abb8282612a75565b919050565b5f67ffffffffffffffff821115612ada57612ad9612a48565b5b612ae3826127af565b9050602081019050919050565b828183375f83830152505050565b5f612b10612b0b84612ac0565b612aa6565b905082815260208101848484011115612b2c57612b2b612a44565b5b612b37848285612af0565b509392505050565b5f82601f830112612b5357612b52612a40565b5b8135612b63848260208601612afe565b91505092915050565b5f805f8060808587031215612b8457612b836126b2565b5b5f612b91878288016128e3565b9450506020612ba2878288016128e3565b9350506040612bb387828801612836565b925050606085013567ffffffffffffffff811115612bd457612bd36126b6565b5b612be087828801612b3f565b91505092959194509250565b5f8060408385031215612c0257612c016126b2565b5b5f612c0f858286016128e3565b9250506020612c20858286016128e3565b9150509250929050565b7f4e487b71000000000000000000000000000000000000000000000000000000005f52602260045260245ffd5b5f6002820490506001821680612c6e57607f821691505b602082108103612c8157612c80612c2a565b5b50919050565b5f606082019050612c9a5f8301866128a5565b612ca76020830185612935565b612cb460408301846128a5565b949350505050565b7f4e6f6e6578697374656e7420746f6b656e0000000000000000000000000000005f82015250565b5f612cf0601183612777565b9150612cfb82612cbc565b602082019050919050565b5f6020820190508181035f830152612d1d81612ce4565b9050919050565b5f81905092915050565b5f612d388261276d565b612d428185612d24565b9350612d52818560208601612787565b80840191505092915050565b5f612d698286612d2e565b9150612d758285612d2e565b9150612d818284612d2e565b9150819050949350505050565b7f7b226e616d65223a2022000000000000000000000000000000000000000000005f82015250565b5f612dc2600a83612d24565b9150612dcd82612d8e565b600a82019050919050565b7f20230000000000000000000000000000000000000000000000000000000000005f82015250565b5f612e0c600283612d24565b9150612e1782612dd8565b600282019050919050565b7f222c20226465736372697074696f6e223a2022546965724e46547320636f6c6c5f8201527f656374696f6e222c2022696d616765223a2022646174613a696d6167652f737660208201527f672b786d6c3b6261736536342c00000000000000000000000000000000000000604082015250565b5f612ea2604d83612d24565b9150612ead82612e22565b604d82019050919050565b7f222c2261747472696275746573223a5b7b2274726169745f74797065223a20225f8201527f54696572222c202276616c7565223a2022000000000000000000000000000000602082015250565b5f612f12603183612d24565b9150612f1d82612eb8565b603182019050919050565b7f22207d5d7d0000000000000000000000000000000000000000000000000000005f82015250565b5f612f5c600583612d24565b9150612f6782612f28565b600582019050919050565b5f612f7c82612db6565b9150612f888287612d2e565b9150612f9382612e00565b9150612f9f8286612d2e565b9150612faa82612e96565b9150612fb68285612d2e565b9150612fc182612f06565b9150612fcd8284612d2e565b9150612fd882612f50565b915081905095945050505050565b7f646174613a6170706c69636174696f6e2f6a736f6e3b6261736536342c0000005f82015250565b5f61301a601d83612d24565b915061302582612fe6565b601d82019050919050565b5f61303a8261300e565b91506130468284612d2e565b915081905092915050565b5f6040820190506130645f8301856128a5565b6130716020830184612935565b9392505050565b7f42616c616e63652073686f756c64206265203e203000000000000000000000005f82015250565b5f6130ac601583612777565b91506130b782613078565b602082019050919050565b5f6020820190508181035f8301526130d9816130a0565b9050919050565b5f81905092915050565b50565b5f6130f85f836130e0565b9150613103826130ea565b5f82019050919050565b5f613117826130ed565b9150819050919050565b7f5769746864726177206661696c656400000000000000000000000000000000005f82015250565b5f613155600f83612777565b915061316082613121565b602082019050919050565b5f6020820190508181035f83015261318281613149565b9050919050565b7f4e487b71000000000000000000000000000000000000000000000000000000005f52603260045260245ffd5b7f4e6f7420656e6f7567682076616c756520666f7220746865206d696e696d756d5f8201527f2054696572000000000000000000000000000000000000000000000000000000602082015250565b5f613210602583612777565b915061321b826131b6565b604082019050919050565b5f6020820190508181035f83015261323d81613204565b9050919050565b7f4e487b71000000000000000000000000000000000000000000000000000000005f52601160045260245ffd5b5f61327b82612817565b91507fffffffffffffffffffffffffffffffffffffffffffffffffffffffffffffffff82036132ad576132ac613244565b5b600182019050919050565b7f4e487b71000000000000000000000000000000000000000000000000000000005f52601260045260245ffd5b5f6132ef82612817565b91506132fa83612817565b925082820190508082111561331257613311613244565b5b92915050565b5f61332282612817565b915061332d83612817565b92508261333d5761333c6132b8565b5b828204905092915050565b5f61335282612817565b915061335d83612817565b925082820261336b81612817565b9150828204841483151761338257613381613244565b5b5092915050565b5f819050815f5260205f209050919050565b5f6020601f8301049050919050565b5f82821b905092915050565b5f600883026133e57fffffffffffffffffffffffffffffffffffffffffffffffffffffffffffffffff826133aa565b6133ef86836133aa565b95508019841693508086168417925050509392505050565b5f819050919050565b5f61342a61342561342084612817565b613407565b612817565b9050919050565b5f819050919050565b61344383613410565b61345761344f82613431565b8484546133b6565b825550505050565b5f90565b61346b61345f565b61347681848461343a565b505050565b5b818110156134995761348e5f82613463565b60018101905061347c565b5050565b601f8211156134de576134af81613389565b6134b88461339b565b810160208510156134c7578190505b6134db6134d38561339b565b83018261347b565b50505b505050565b5f82821c905092915050565b5f6134fe5f19846008026134e3565b1980831691505092915050565b5f61351683836134ef565b9150826002028217905092915050565b61352f8261276d565b67ffffffffffffffff81111561354857613547612a48565b5b6135528254612c57565b61355d82828561349d565b5f60209050601f83116001811461358e575f841561357c578287015190505b613586858261350b565b8655506135ed565b601f19841661359c86613389565b5f5b828110156135c35784890151825560018201915060208501945060208101905061359e565b868310156135e057848901516135dc601f8916826134ef565b8355505b6001600288020188555050505b505050505050565b5f81519050919050565b5f82825260208201905092915050565b5f613619826135f5565b61362381856135ff565b9350613633818560208601612787565b61363c816127af565b840191505092915050565b5f60808201905061365a5f8301876128a5565b61366760208301866128a5565b6136746040830185612935565b8181036060830152613686818461360f565b905095945050505050565b5f8151905061369f816126e5565b92915050565b5f602082840312156136ba576136b96126b2565b5b5f6136c784828501613691565b91505092915050565b5f6136db8285612d2e565b91506136e78284612d2e565b91508190509392505050565b5f6136fd82612817565b915061370883612817565b92508282039050818111156137205761371f613244565b5b92915050565b7f4e487b71000000000000000000000000000000000000000000000000000000005f52603160045260245ffdfe3c73766720786d6c6e733d22687474703a2f2f7777772e77332e6f72672f323030302f737667222077696474683d2235303022206865696768743d22353030222066696c6c3d226e6f6e652220666f6e742d66616d696c793d2273616e732d7365726966223e3c646566733e3c66696c7465722069643d22412220636f6c6f722d696e746572706f6c6174696f6e2d66696c746572733d2273524742222066696c746572556e6974733d227573657253706163654f6e55736522206865696768743d22353030222077696474683d22353030223e3c666544726f70536861646f772064783d2231222064793d22322220737464446576696174696f6e3d22382220666c6f6f642d6f7061636974793d222e3637222077696474683d223230302522206865696768743d223230302522202f3e3c2f66696c7465723e3c6c696e6561724772616469656e742069643d2242222078313d2230222079313d2230222078323d223135303030222079323d223022206772616469656e74556e6974733d227573657253706163654f6e557365223e3c73746f70206f66667365743d222e3035222073746f702d636f6c6f723d222361643030666622202f3e3c73746f70206f66667365743d222e3233222073746f702d636f6c6f723d222334653030656322202f3e3c73746f70206f66667365743d222e3431222073746f702d636f6c6f723d222366663030663522202f3e3c73746f70206f66667365743d222e3539222073746f702d636f6c6f723d222365306530653022202f3e3c73746f70206f66667365743d222e3737222073746f702d636f6c6f723d222366666438313022202f3e3c73746f70206f66667365743d222e3935222073746f702d636f6c6f723d222361643030666622202f3e3c2f6c696e6561724772616469656e743e3c6c696e6561724772616469656e742069643d2243222078313d2230222079313d223630222078323d2230222079323d2231313022206772616469656e74556e6974733d227573657253706163654f6e557365223e3c73746f702073746f702d636f6c6f723d222364303430623822202f3e3c73746f70206f66667365743d2231222073746f702d636f6c6f723d222365306530653022202f3e3c2f6c696e6561724772616469656e743e3c2f646566733e3c706174682066696c6c3d2275726c282342292220643d224d3020306831353030307635303048307a223e3c616e696d6174655472616e73666f726d206174747269627574654e616d653d227472616e73666f726d2220617474726962757465547970653d22584d4c2220747970653d227472616e736c617465222066726f6d3d223020302220746f3d222d3134353030203022206475723d223136732220726570656174436f756e743d22696e646566696e69746522202f3e3c2f706174683e3c636972636c652066696c6c3d2223316431653230222063783d22313030222063793d2239302220723d223435222066696c7465723d2275726c2823412922202f3e3c7465787420783d223130312220793d2239392220746578742d616e63686f723d226d6964646c652220636c6173733d226e66744c6f676f2220666f6e742d73697a653d2233327078222066696c6c3d2275726c28234329222066696c7465723d2275726c28234129223e445f443c616e696d6174655472616e73666f726d206174747269627574654e616d653d227472616e73666f726d2220617474726962757465547970653d22584d4c2220747970653d22726f74617465222066726f6d3d2230203130302039302220746f3d223336302031303020393022206475723d2235732220726570656174436f756e743d22696e646566696e69746522202f3e3c2f746578743e3c6720666f6e742d73697a653d223332222066696c6c3d2223666666222066696c7465723d2275726c28234129223e3c7465787420783d223235302220793d223238302220746578742d616e63686f723d226d6964646c652220636c6173733d22746965724e616d65223e4142434445464748494a4b4c4d4e4f505152535455565758595a6162636465666768696a6b6c6d6e6f707172737475767778797a303132333435363738392b2fa26469706673582212200a68d324cc1fe44fa67827ad1cc6c3a69b16107c615d7ad77b7f9eb56db51f3864736f6c63430008140033",
  "linkReferences": {},
  "deployedLinkReferences": {}
}