{
  "_format": "hh-sol-artifact-1",
  "contractName": "TierNFT",
  "sourceName": "contracts/TierNFT.sol",
  "abi": [
    {
      "inputs": [
        {
          "internalType": "string",
          "name": "_name",
          "type": "string"
        },
        {
          "internalType": "string",
          "name": "_symbol",
          "type": "string"
        }
      ],
      "stateMutability": "nonpayable",
      "type": "constructor"
    },
    {
      "anonymous": false,
      "inputs": [
        {
          "indexed": true,
          "internalType": "address",
          "name": "owner",
          "type": "address"
        },
        {
          "indexed": true,
          "internalType": "address",
          "name": "approved",
          "type": "address"
        },
        {
          "indexed": true,
          "internalType": "uint256",
          "name": "tokenId",
          "type": "uint256"
        }
      ],
      "name": "Approval",
      "type": "event"
    },
    {
      "anonymous": false,
      "inputs": [
        {
          "indexed": true,
          "internalType": "address",
          "name": "owner",
          "type": "address"
        },
        {
          "indexed": true,
          "internalType": "address",
          "name": "operator",
          "type": "address"
        },
        {
          "indexed": false,
          "internalType": "bool",
          "name": "approved",
          "type": "bool"
        }
      ],
      "name": "ApprovalForAll",
      "type": "event"
    },
    {
      "anonymous": false,
      "inputs": [
        {
          "indexed": true,
          "internalType": "address",
          "name": "previousOwner",
          "type": "address"
        },
        {
          "indexed": true,
          "internalType": "address",
          "name": "newOwner",
          "type": "address"
        }
      ],
      "name": "OwnershipTransferred",
      "type": "event"
    },
    {
      "anonymous": false,
      "inputs": [
        {
          "indexed": true,
          "internalType": "address",
          "name": "from",
          "type": "address"
        },
        {
          "indexed": true,
          "internalType": "address",
          "name": "to",
          "type": "address"
        },
        {
          "indexed": true,
          "internalType": "uint256",
          "name": "tokenId",
          "type": "uint256"
        }
      ],
      "name": "Transfer",
      "type": "event"
    },
    {
      "inputs": [
        {
          "internalType": "address",
          "name": "to",
          "type": "address"
        },
        {
          "internalType": "uint256",
          "name": "tokenId",
          "type": "uint256"
        }
      ],
      "name": "approve",
      "outputs": [],
      "stateMutability": "nonpayable",
      "type": "function"
    },
    {
      "inputs": [
        {
          "internalType": "address",
          "name": "owner",
          "type": "address"
        }
      ],
      "name": "balanceOf",
      "outputs": [
        {
          "internalType": "uint256",
          "name": "",
          "type": "uint256"
        }
      ],
      "stateMutability": "view",
      "type": "function"
    },
    {
      "inputs": [
        {
          "internalType": "uint256",
          "name": "tokenId",
          "type": "uint256"
        }
      ],
      "name": "getApproved",
      "outputs": [
        {
          "internalType": "address",
          "name": "",
          "type": "address"
        }
      ],
      "stateMutability": "view",
      "type": "function"
    },
    {
      "inputs": [
        {
          "internalType": "address",
          "name": "owner",
          "type": "address"
        },
        {
          "internalType": "address",
          "name": "operator",
          "type": "address"
        }
      ],
      "name": "isApprovedForAll",
      "outputs": [
        {
          "internalType": "bool",
          "name": "",
          "type": "bool"
        }
      ],
      "stateMutability": "view",
      "type": "function"
    },
    {
      "inputs": [],
      "name": "mint",
      "outputs": [],
      "stateMutability": "payable",
      "type": "function"
    },
    {
      "inputs": [],
      "name": "name",
      "outputs": [
        {
          "internalType": "string",
          "name": "",
          "type": "string"
        }
      ],
      "stateMutability": "view",
      "type": "function"
    },
    {
      "inputs": [],
      "name": "owner",
      "outputs": [
        {
          "internalType": "address",
          "name": "",
          "type": "address"
        }
      ],
      "stateMutability": "view",
      "type": "function"
    },
    {
      "inputs": [
        {
          "internalType": "uint256",
          "name": "tokenId",
          "type": "uint256"
        }
      ],
      "name": "ownerOf",
      "outputs": [
        {
          "internalType": "address",
          "name": "",
          "type": "address"
        }
      ],
      "stateMutability": "view",
      "type": "function"
    },
    {
      "inputs": [],
      "name": "renounceOwnership",
      "outputs": [],
      "stateMutability": "nonpayable",
      "type": "function"
    },
    {
      "inputs": [
        {
          "internalType": "address",
          "name": "from",
          "type": "address"
        },
        {
          "internalType": "address",
          "name": "to",
          "type": "address"
        },
        {
          "internalType": "uint256",
          "name": "tokenId",
          "type": "uint256"
        }
      ],
      "name": "safeTransferFrom",
      "outputs": [],
      "stateMutability": "nonpayable",
      "type": "function"
    },
    {
      "inputs": [
        {
          "internalType": "address",
          "name": "from",
          "type": "address"
        },
        {
          "internalType": "address",
          "name": "to",
          "type": "address"
        },
        {
          "internalType": "uint256",
          "name": "tokenId",
          "type": "uint256"
        },
        {
          "internalType": "bytes",
          "name": "data",
          "type": "bytes"
        }
      ],
      "name": "safeTransferFrom",
      "outputs": [],
      "stateMutability": "nonpayable",
      "type": "function"
    },
    {
      "inputs": [
        {
          "internalType": "address",
          "name": "operator",
          "type": "address"
        },
        {
          "internalType": "bool",
          "name": "approved",
          "type": "bool"
        }
      ],
      "name": "setApprovalForAll",
      "outputs": [],
      "stateMutability": "nonpayable",
      "type": "function"
    },
    {
      "inputs": [
        {
          "internalType": "bytes4",
          "name": "interfaceId",
          "type": "bytes4"
        }
      ],
      "name": "supportsInterface",
      "outputs": [
        {
          "internalType": "bool",
          "name": "",
          "type": "bool"
        }
      ],
      "stateMutability": "view",
      "type": "function"
    },
    {
      "inputs": [],
      "name": "symbol",
      "outputs": [
        {
          "internalType": "string",
          "name": "",
          "type": "string"
        }
      ],
      "stateMutability": "view",
      "type": "function"
    },
    {
      "inputs": [
        {
          "internalType": "uint256",
          "name": "",
          "type": "uint256"
        }
      ],
      "name": "tokenTier",
      "outputs": [
        {
          "internalType": "uint256",
          "name": "",
          "type": "uint256"
        }
      ],
      "stateMutability": "view",
      "type": "function"
    },
    {
      "inputs": [
        {
          "internalType": "uint256",
          "name": "tokenId",
          "type": "uint256"
        }
      ],
      "name": "tokenURI",
      "outputs": [
        {
          "internalType": "string",
          "name": "",
          "type": "string"
        }
      ],
      "stateMutability": "view",
      "type": "function"
    },
    {
      "inputs": [],
      "name": "totalSupply",
      "outputs": [
        {
          "internalType": "uint256",
          "name": "",
          "type": "uint256"
        }
      ],
      "stateMutability": "view",
      "type": "function"
    },
    {
      "inputs": [
        {
          "internalType": "address",
          "name": "from",
          "type": "address"
        },
        {
          "internalType": "address",
          "name": "to",
          "type": "address"
        },
        {
          "internalType": "uint256",
          "name": "tokenId",
          "type": "uint256"
        }
      ],
      "name": "transferFrom",
      "outputs": [],
      "stateMutability": "nonpayable",
      "type": "function"
    },
    {
      "inputs": [
        {
          "internalType": "address",
          "name": "newOwner",
          "type": "address"
        }
      ],
      "name": "transferOwnership",
      "outputs": [],
      "stateMutability": "nonpayable",
      "type": "function"
    },
    {
      "inputs": [],
      "name": "withdraw",
      "outputs": [],
      "stateMutability": "nonpayable",
      "type": "function"
    }
  ],
  "bytecode": "0x60806040523480156200001157600080fd5b5060405162003f7b38038062003f7b8339818101604052810190620000379190620003b0565b818181600090805190602001906200005192919062000163565b5080600190805190602001906200006a92919062000163565b5050506200008d620000816200009560201b60201c565b6200009d60201b60201c565b50506200049a565b600033905090565b6000600660009054906101000a900473ffffffffffffffffffffffffffffffffffffffff16905081600660006101000a81548173ffffffffffffffffffffffffffffffffffffffff021916908373ffffffffffffffffffffffffffffffffffffffff1602179055508173ffffffffffffffffffffffffffffffffffffffff168173ffffffffffffffffffffffffffffffffffffffff167f8be0079c531659141344cd1fd0a4f28419497f9722a3daafe3b4186f6b6457e060405160405180910390a35050565b828054620001719062000464565b90600052602060002090601f016020900481019282620001955760008555620001e1565b82601f10620001b057805160ff1916838001178555620001e1565b82800160010185558215620001e1579182015b82811115620001e0578251825591602001919060010190620001c3565b5b509050620001f09190620001f4565b5090565b5b808211156200020f576000816000905550600101620001f5565b5090565b6000604051905090565b600080fd5b600080fd5b600080fd5b600080fd5b6000601f19601f8301169050919050565b7f4e487b7100000000000000000000000000000000000000000000000000000000600052604160045260246000fd5b6200027c8262000231565b810181811067ffffffffffffffff821117156200029e576200029d62000242565b5b80604052505050565b6000620002b362000213565b9050620002c1828262000271565b919050565b600067ffffffffffffffff821115620002e457620002e362000242565b5b620002ef8262000231565b9050602081019050919050565b60005b838110156200031c578082015181840152602081019050620002ff565b838111156200032c576000848401525b50505050565b6000620003496200034384620002c6565b620002a7565b9050828152602081018484840111156200036857620003676200022c565b5b62000375848285620002fc565b509392505050565b600082601f83011262000395576200039462000227565b5b8151620003a784826020860162000332565b91505092915050565b60008060408385031215620003ca57620003c96200021d565b5b600083015167ffffffffffffffff811115620003eb57620003ea62000222565b5b620003f9858286016200037d565b925050602083015167ffffffffffffffff8111156200041d576200041c62000222565b5b6200042b858286016200037d565b9150509250929050565b7f4e487b7100000000000000000000000000000000000000000000000000000000600052602260045260246000fd5b600060028204905060018216806200047d57607f821691505b6020821081141562000494576200049362000435565b5b50919050565b613ad180620004aa6000396000f3fe60806040526004361061011f5760003560e01c8063649e705f116100a0578063a22cb46511610064578063a22cb465146103b4578063b88d4fde146103dd578063c87b56dd14610406578063e985e9c514610443578063f2fde38b146104805761011f565b8063649e705f146102cd57806370a082311461030a578063715018a6146103475780638da5cb5b1461035e57806395d89b41146103895761011f565b806318160ddd116100e757806318160ddd146101fc57806323b872dd146102275780633ccfd60b1461025057806342842e0e146102675780636352211e146102905761011f565b806301ffc9a71461012457806306fdde0314610161578063081812fc1461018c578063095ea7b3146101c95780631249c58b146101f2575b600080fd5b34801561013057600080fd5b5061014b6004803603810190610146919061206d565b6104a9565b60405161015891906120b5565b60405180910390f35b34801561016d57600080fd5b5061017661058b565b6040516101839190612169565b60405180910390f35b34801561019857600080fd5b506101b360048036038101906101ae91906121c1565b61061d565b6040516101c0919061222f565b60405180910390f35b3480156101d557600080fd5b506101f060048036038101906101eb9190612276565b610663565b005b6101fa61077b565b005b34801561020857600080fd5b50610211610833565b60405161021e91906122c5565b60405180910390f35b34801561023357600080fd5b5061024e600480360381019061024991906122e0565b610839565b005b34801561025c57600080fd5b50610265610899565b005b34801561027357600080fd5b5061028e600480360381019061028991906122e0565b6109a0565b005b34801561029c57600080fd5b506102b760048036038101906102b291906121c1565b6109c0565b6040516102c4919061222f565b60405180910390f35b3480156102d957600080fd5b506102f460048036038101906102ef91906121c1565b610a47565b60405161030191906122c5565b60405180910390f35b34801561031657600080fd5b50610331600480360381019061032c9190612333565b610a5f565b60405161033e91906122c5565b60405180910390f35b34801561035357600080fd5b5061035c610b17565b005b34801561036a57600080fd5b50610373610b2b565b604051610380919061222f565b60405180910390f35b34801561039557600080fd5b5061039e610b55565b6040516103ab9190612169565b60405180910390f35b3480156103c057600080fd5b506103db60048036038101906103d6919061238c565b610be7565b005b3480156103e957600080fd5b5061040460048036038101906103ff9190612501565b610bfd565b005b34801561041257600080fd5b5061042d600480360381019061042891906121c1565b610c5f565b60405161043a9190612169565b60405180910390f35b34801561044f57600080fd5b5061046a60048036038101906104659190612584565b610e7c565b60405161047791906120b5565b60405180910390f35b34801561048c57600080fd5b506104a760048036038101906104a29190612333565b610f10565b005b60007f80ac58cd000000000000000000000000000000000000000000000000000000007bffffffffffffffffffffffffffffffffffffffffffffffffffffffff1916827bffffffffffffffffffffffffffffffffffffffffffffffffffffffff1916148061057457507f5b5e139f000000000000000000000000000000000000000000000000000000007bffffffffffffffffffffffffffffffffffffffffffffffffffffffff1916827bffffffffffffffffffffffffffffffffffffffffffffffffffffffff1916145b80610584575061058382610f94565b5b9050919050565b60606000805461059a906125f3565b80601f01602080910402602001604051908101604052809291908181526020018280546105c6906125f3565b80156106135780601f106105e857610100808354040283529160200191610613565b820191906000526020600020905b8154815290600101906020018083116105f657829003601f168201915b5050505050905090565b600061062882610ffe565b6004600083815260200190815260200160002060009054906101000a900473ffffffffffffffffffffffffffffffffffffffff169050919050565b600061066e826109c0565b90508073ffffffffffffffffffffffffffffffffffffffff168373ffffffffffffffffffffffffffffffffffffffff1614156106df576040517f08c379a00000000000000000000000000000000000000000000000000000000081526004016106d690612697565b60405180910390fd5b8073ffffffffffffffffffffffffffffffffffffffff166106fe611049565b73ffffffffffffffffffffffffffffffffffffffff16148061072d575061072c81610727611049565b610e7c565b5b61076c576040517f08c379a000000000000000000000000000000000000000000000000000000000815260040161076390612729565b60405180910390fd5b6107768383611051565b505050565b662386f26fc100003410156107c5576040517f08c379a00000000000000000000000000000000000000000000000000000000081526004016107bc906127bb565b60405180910390fd5b600066b1a2bc2ec5000034106107de57600290506107f2565b66470de4df82000034106107f157600190505b5b600760008154809291906108059061280a565b91905055506108163360075461110a565b806008600060075481526020019081526020016000208190555050565b60075481565b61084a610844611049565b82611128565b610889576040517f08c379a0000000000000000000000000000000000000000000000000000000008152600401610880906128c5565b60405180910390fd5b6108948383836111bd565b505050565b6108a16114b7565b6000479050600081116108e9576040517f08c379a00000000000000000000000000000000000000000000000000000000081526004016108e090612931565b60405180910390fd5b60006108f3610b2b565b73ffffffffffffffffffffffffffffffffffffffff168260405161091690612982565b60006040518083038185875af1925050503d8060008114610953576040519150601f19603f3d011682016040523d82523d6000602084013e610958565b606091505b505090508061099c576040517f08c379a0000000000000000000000000000000000000000000000000000000008152600401610993906129e3565b60405180910390fd5b5050565b6109bb83838360405180602001604052806000815250610bfd565b505050565b6000806109cc83611535565b9050600073ffffffffffffffffffffffffffffffffffffffff168173ffffffffffffffffffffffffffffffffffffffff161415610a3e576040517f08c379a0000000000000000000000000000000000000000000000000000000008152600401610a3590612a4f565b60405180910390fd5b80915050919050565b60086020528060005260406000206000915090505481565b60008073ffffffffffffffffffffffffffffffffffffffff168273ffffffffffffffffffffffffffffffffffffffff161415610ad0576040517f08c379a0000000000000000000000000000000000000000000000000000000008152600401610ac790612ae1565b60405180910390fd5b600360008373ffffffffffffffffffffffffffffffffffffffff1673ffffffffffffffffffffffffffffffffffffffff168152602001908152602001600020549050919050565b610b1f6114b7565b610b296000611572565b565b6000600660009054906101000a900473ffffffffffffffffffffffffffffffffffffffff16905090565b606060018054610b64906125f3565b80601f0160208091040260200160405190810160405280929190818152602001828054610b90906125f3565b8015610bdd5780601f10610bb257610100808354040283529160200191610bdd565b820191906000526020600020905b815481529060010190602001808311610bc057829003601f168201915b5050505050905090565b610bf9610bf2611049565b8383611638565b5050565b610c0e610c08611049565b83611128565b610c4d576040517f08c379a0000000000000000000000000000000000000000000000000000000008152600401610c44906128c5565b60405180910390fd5b610c59848484846117a5565b50505050565b6060610c6a82611801565b610ca9576040517f08c379a0000000000000000000000000000000000000000000000000000000008152600401610ca090612b4d565b60405180910390fd5b60006002600860008581526020019081526020016000205414610d58576001600860008581526020019081526020016000205414610d1c576040518060400160405280600581526020017f4261736963000000000000000000000000000000000000000000000000000000815250610d53565b6040518060400160405280600681526020017f4d656469756d00000000000000000000000000000000000000000000000000008152505b610d8f565b6040518060400160405280600781526020017f5072656d69756d000000000000000000000000000000000000000000000000008152505b905060006040518061060001604052806105c581526020016134976105c59139826040518060400160405280601181526020017f3c2f746578743e3c2f673e3c2f7376673e000000000000000000000000000000815250604051602001610df893929190612ba9565b60405160208183030381529060405290506000610e50610e1661058b565b610e1f87611842565b610e288561191a565b86604051602001610e3c9493929190612dc8565b60405160208183030381529060405261191a565b905080604051602001610e639190612e89565b6040516020818303038152906040529350505050919050565b6000600560008473ffffffffffffffffffffffffffffffffffffffff1673ffffffffffffffffffffffffffffffffffffffff16815260200190815260200160002060008373ffffffffffffffffffffffffffffffffffffffff1673ffffffffffffffffffffffffffffffffffffffff16815260200190815260200160002060009054906101000a900460ff16905092915050565b610f186114b7565b600073ffffffffffffffffffffffffffffffffffffffff168173ffffffffffffffffffffffffffffffffffffffff161415610f88576040517f08c379a0000000000000000000000000000000000000000000000000000000008152600401610f7f90612f1d565b60405180910390fd5b610f9181611572565b50565b60007f01ffc9a7000000000000000000000000000000000000000000000000000000007bffffffffffffffffffffffffffffffffffffffffffffffffffffffff1916827bffffffffffffffffffffffffffffffffffffffffffffffffffffffff1916149050919050565b61100781611801565b611046576040517f08c379a000000000000000000000000000000000000000000000000000000000815260040161103d90612a4f565b60405180910390fd5b50565b600033905090565b816004600083815260200190815260200160002060006101000a81548173ffffffffffffffffffffffffffffffffffffffff021916908373ffffffffffffffffffffffffffffffffffffffff160217905550808273ffffffffffffffffffffffffffffffffffffffff166110c4836109c0565b73ffffffffffffffffffffffffffffffffffffffff167f8c5be1e5ebec7d5bd14f71427d1e84f3dd0314c0f7b2291e5b200ac8c7c3b92560405160405180910390a45050565b611124828260405180602001604052806000815250611a7e565b5050565b600080611134836109c0565b90508073ffffffffffffffffffffffffffffffffffffffff168473ffffffffffffffffffffffffffffffffffffffff16148061117657506111758185610e7c565b5b806111b457508373ffffffffffffffffffffffffffffffffffffffff1661119c8461061d565b73ffffffffffffffffffffffffffffffffffffffff16145b91505092915050565b8273ffffffffffffffffffffffffffffffffffffffff166111dd826109c0565b73ffffffffffffffffffffffffffffffffffffffff1614611233576040517f08c379a000000000000000000000000000000000000000000000000000000000815260040161122a90612faf565b60405180910390fd5b600073ffffffffffffffffffffffffffffffffffffffff168273ffffffffffffffffffffffffffffffffffffffff1614156112a3576040517f08c379a000000000000000000000000000000000000000000000000000000000815260040161129a90613041565b60405180910390fd5b6112b08383836001611ad9565b8273ffffffffffffffffffffffffffffffffffffffff166112d0826109c0565b73ffffffffffffffffffffffffffffffffffffffff1614611326576040517f08c379a000000000000000000000000000000000000000000000000000000000815260040161131d90612faf565b60405180910390fd5b6004600082815260200190815260200160002060006101000a81549073ffffffffffffffffffffffffffffffffffffffff02191690556001600360008573ffffffffffffffffffffffffffffffffffffffff1673ffffffffffffffffffffffffffffffffffffffff168152602001908152602001600020600082825403925050819055506001600360008473ffffffffffffffffffffffffffffffffffffffff1673ffffffffffffffffffffffffffffffffffffffff16815260200190815260200160002060008282540192505081905550816002600083815260200190815260200160002060006101000a81548173ffffffffffffffffffffffffffffffffffffffff021916908373ffffffffffffffffffffffffffffffffffffffff160217905550808273ffffffffffffffffffffffffffffffffffffffff168473ffffffffffffffffffffffffffffffffffffffff167fddf252ad1be2c89b69c2b068fc378daa952ba7f163c4a11628f55a4df523b3ef60405160405180910390a46114b28383836001611adf565b505050565b6114bf611049565b73ffffffffffffffffffffffffffffffffffffffff166114dd610b2b565b73ffffffffffffffffffffffffffffffffffffffff1614611533576040517f08c379a000000000000000000000000000000000000000000000000000000000815260040161152a906130ad565b60405180910390fd5b565b60006002600083815260200190815260200160002060009054906101000a900473ffffffffffffffffffffffffffffffffffffffff169050919050565b6000600660009054906101000a900473ffffffffffffffffffffffffffffffffffffffff16905081600660006101000a81548173ffffffffffffffffffffffffffffffffffffffff021916908373ffffffffffffffffffffffffffffffffffffffff1602179055508173ffffffffffffffffffffffffffffffffffffffff168173ffffffffffffffffffffffffffffffffffffffff167f8be0079c531659141344cd1fd0a4f28419497f9722a3daafe3b4186f6b6457e060405160405180910390a35050565b8173ffffffffffffffffffffffffffffffffffffffff168373ffffffffffffffffffffffffffffffffffffffff1614156116a7576040517f08c379a000000000000000000000000000000000000000000000000000000000815260040161169e90613119565b60405180910390fd5b80600560008573ffffffffffffffffffffffffffffffffffffffff1673ffffffffffffffffffffffffffffffffffffffff16815260200190815260200160002060008473ffffffffffffffffffffffffffffffffffffffff1673ffffffffffffffffffffffffffffffffffffffff16815260200190815260200160002060006101000a81548160ff0219169083151502179055508173ffffffffffffffffffffffffffffffffffffffff168373ffffffffffffffffffffffffffffffffffffffff167f17307eab39ab6107e8899845ad3d59bd9653f200f220920489ca2b5937696c318360405161179891906120b5565b60405180910390a3505050565b6117b08484846111bd565b6117bc84848484611ae5565b6117fb576040517f08c379a00000000000000000000000000000000000000000000000000000000081526004016117f2906131ab565b60405180910390fd5b50505050565b60008073ffffffffffffffffffffffffffffffffffffffff1661182383611535565b73ffffffffffffffffffffffffffffffffffffffff1614159050919050565b60606000600161185184611c6d565b01905060008167ffffffffffffffff8111156118705761186f6123d6565b5b6040519080825280601f01601f1916602001820160405280156118a25781602001600182028036833780820191505090505b509050600082602001820190505b60011561190f578080600190039150507f3031323334353637383961626364656600000000000000000000000000000000600a86061a8153600a85816118f9576118f86131cb565b5b049450600085141561190a5761190f565b6118b0565b819350505050919050565b606060008251141561193d57604051806020016040528060008152509050611a79565b6000604051806060016040528060408152602001613a5c604091399050600060036002855161196c91906131fa565b6119769190613250565b60046119829190613281565b67ffffffffffffffff81111561199b5761199a6123d6565b5b6040519080825280601f01601f1916602001820160405280156119cd5781602001600182028036833780820191505090505b509050600182016020820185865187015b80821015611a39576003820191508151603f8160121c168501518453600184019350603f81600c1c168501518453600184019350603f8160061c168501518453600184019350603f81168501518453600184019350506119de565b5050600386510660018114611a555760028114611a6857611a70565b603d6001830353603d6002830353611a70565b603d60018303535b50505080925050505b919050565b611a888383611dc0565b611a956000848484611ae5565b611ad4576040517f08c379a0000000000000000000000000000000000000000000000000000000008152600401611acb906131ab565b60405180910390fd5b505050565b50505050565b50505050565b6000611b068473ffffffffffffffffffffffffffffffffffffffff16611fde565b15611c60578373ffffffffffffffffffffffffffffffffffffffff1663150b7a02611b2f611049565b8786866040518563ffffffff1660e01b8152600401611b519493929190613330565b6020604051808303816000875af1925050508015611b8d57506040513d601f19601f82011682018060405250810190611b8a9190613391565b60015b611c10573d8060008114611bbd576040519150601f19603f3d011682016040523d82523d6000602084013e611bc2565b606091505b50600081511415611c08576040517f08c379a0000000000000000000000000000000000000000000000000000000008152600401611bff906131ab565b60405180910390fd5b805181602001fd5b63150b7a0260e01b7bffffffffffffffffffffffffffffffffffffffffffffffffffffffff1916817bffffffffffffffffffffffffffffffffffffffffffffffffffffffff191614915050611c65565b600190505b949350505050565b600080600090507a184f03e93ff9f4daa797ed6e38ed64bf6a1f0100000000000000008310611ccb577a184f03e93ff9f4daa797ed6e38ed64bf6a1f0100000000000000008381611cc157611cc06131cb565b5b0492506040810190505b6d04ee2d6d415b85acef81000000008310611d08576d04ee2d6d415b85acef81000000008381611cfe57611cfd6131cb565b5b0492506020810190505b662386f26fc100008310611d3757662386f26fc100008381611d2d57611d2c6131cb565b5b0492506010810190505b6305f5e1008310611d60576305f5e1008381611d5657611d556131cb565b5b0492506008810190505b6127108310611d85576127108381611d7b57611d7a6131cb565b5b0492506004810190505b60648310611da85760648381611d9e57611d9d6131cb565b5b0492506002810190505b600a8310611db7576001810190505b80915050919050565b600073ffffffffffffffffffffffffffffffffffffffff168273ffffffffffffffffffffffffffffffffffffffff161415611e30576040517f08c379a0000000000000000000000000000000000000000000000000000000008152600401611e279061340a565b60405180910390fd5b611e3981611801565b15611e79576040517f08c379a0000000000000000000000000000000000000000000000000000000008152600401611e7090613476565b60405180910390fd5b611e87600083836001611ad9565b611e9081611801565b15611ed0576040517f08c379a0000000000000000000000000000000000000000000000000000000008152600401611ec790613476565b60405180910390fd5b6001600360008473ffffffffffffffffffffffffffffffffffffffff1673ffffffffffffffffffffffffffffffffffffffff16815260200190815260200160002060008282540192505081905550816002600083815260200190815260200160002060006101000a81548173ffffffffffffffffffffffffffffffffffffffff021916908373ffffffffffffffffffffffffffffffffffffffff160217905550808273ffffffffffffffffffffffffffffffffffffffff16600073ffffffffffffffffffffffffffffffffffffffff167fddf252ad1be2c89b69c2b068fc378daa952ba7f163c4a11628f55a4df523b3ef60405160405180910390a4611fda600083836001611adf565b5050565b6000808273ffffffffffffffffffffffffffffffffffffffff163b119050919050565b6000604051905090565b600080fd5b600080fd5b60007fffffffff0000000000000000000000000000000000000000000000000000000082169050919050565b61204a81612015565b811461205557600080fd5b50565b60008135905061206781612041565b92915050565b6000602082840312156120835761208261200b565b5b600061209184828501612058565b91505092915050565b60008115159050919050565b6120af8161209a565b82525050565b60006020820190506120ca60008301846120a6565b92915050565b600081519050919050565b600082825260208201905092915050565b60005b8381101561210a5780820151818401526020810190506120ef565b83811115612119576000848401525b50505050565b6000601f19601f8301169050919050565b600061213b826120d0565b61214581856120db565b93506121558185602086016120ec565b61215e8161211f565b840191505092915050565b600060208201905081810360008301526121838184612130565b905092915050565b6000819050919050565b61219e8161218b565b81146121a957600080fd5b50565b6000813590506121bb81612195565b92915050565b6000602082840312156121d7576121d661200b565b5b60006121e5848285016121ac565b91505092915050565b600073ffffffffffffffffffffffffffffffffffffffff82169050919050565b6000612219826121ee565b9050919050565b6122298161220e565b82525050565b60006020820190506122446000830184612220565b92915050565b6122538161220e565b811461225e57600080fd5b50565b6000813590506122708161224a565b92915050565b6000806040838503121561228d5761228c61200b565b5b600061229b85828601612261565b92505060206122ac858286016121ac565b9150509250929050565b6122bf8161218b565b82525050565b60006020820190506122da60008301846122b6565b92915050565b6000806000606084860312156122f9576122f861200b565b5b600061230786828701612261565b935050602061231886828701612261565b9250506040612329868287016121ac565b9150509250925092565b6000602082840312156123495761234861200b565b5b600061235784828501612261565b91505092915050565b6123698161209a565b811461237457600080fd5b50565b60008135905061238681612360565b92915050565b600080604083850312156123a3576123a261200b565b5b60006123b185828601612261565b92505060206123c285828601612377565b9150509250929050565b600080fd5b600080fd5b7f4e487b7100000000000000000000000000000000000000000000000000000000600052604160045260246000fd5b61240e8261211f565b810181811067ffffffffffffffff8211171561242d5761242c6123d6565b5b80604052505050565b6000612440612001565b905061244c8282612405565b919050565b600067ffffffffffffffff82111561246c5761246b6123d6565b5b6124758261211f565b9050602081019050919050565b82818337600083830152505050565b60006124a461249f84612451565b612436565b9050828152602081018484840111156124c0576124bf6123d1565b5b6124cb848285612482565b509392505050565b600082601f8301126124e8576124e76123cc565b5b81356124f8848260208601612491565b91505092915050565b6000806000806080858703121561251b5761251a61200b565b5b600061252987828801612261565b945050602061253a87828801612261565b935050604061254b878288016121ac565b925050606085013567ffffffffffffffff81111561256c5761256b612010565b5b612578878288016124d3565b91505092959194509250565b6000806040838503121561259b5761259a61200b565b5b60006125a985828601612261565b92505060206125ba85828601612261565b9150509250929050565b7f4e487b7100000000000000000000000000000000000000000000000000000000600052602260045260246000fd5b6000600282049050600182168061260b57607f821691505b6020821081141561261f5761261e6125c4565b5b50919050565b7f4552433732313a20617070726f76616c20746f2063757272656e74206f776e6560008201527f7200000000000000000000000000000000000000000000000000000000000000602082015250565b60006126816021836120db565b915061268c82612625565b604082019050919050565b600060208201905081810360008301526126b081612674565b9050919050565b7f4552433732313a20617070726f76652063616c6c6572206973206e6f7420746f60008201527f6b656e206f776e6572206f7220617070726f76656420666f7220616c6c000000602082015250565b6000612713603d836120db565b915061271e826126b7565b604082019050919050565b6000602082019050818103600083015261274281612706565b9050919050565b7f4e6f7420656e6f7567682076616c756520666f7220746865206d696e696d756d60008201527f2054696572000000000000000000000000000000000000000000000000000000602082015250565b60006127a56025836120db565b91506127b082612749565b604082019050919050565b600060208201905081810360008301526127d481612798565b9050919050565b7f4e487b7100000000000000000000000000000000000000000000000000000000600052601160045260246000fd5b60006128158261218b565b91507fffffffffffffffffffffffffffffffffffffffffffffffffffffffffffffffff821415612848576128476127db565b5b600182019050919050565b7f4552433732313a2063616c6c6572206973206e6f7420746f6b656e206f776e6560008201527f72206f7220617070726f76656400000000000000000000000000000000000000602082015250565b60006128af602d836120db565b91506128ba82612853565b604082019050919050565b600060208201905081810360008301526128de816128a2565b9050919050565b7f42616c616e63652073686f756c64206265203e20300000000000000000000000600082015250565b600061291b6015836120db565b9150612926826128e5565b602082019050919050565b6000602082019050818103600083015261294a8161290e565b9050919050565b600081905092915050565b50565b600061296c600083612951565b91506129778261295c565b600082019050919050565b600061298d8261295f565b9150819050919050565b7f5769746864726177206661696c65640000000000000000000000000000000000600082015250565b60006129cd600f836120db565b91506129d882612997565b602082019050919050565b600060208201905081810360008301526129fc816129c0565b9050919050565b7f4552433732313a20696e76616c696420746f6b656e2049440000000000000000600082015250565b6000612a396018836120db565b9150612a4482612a03565b602082019050919050565b60006020820190508181036000830152612a6881612a2c565b9050919050565b7f4552433732313a2061646472657373207a65726f206973206e6f74206120766160008201527f6c6964206f776e65720000000000000000000000000000000000000000000000602082015250565b6000612acb6029836120db565b9150612ad682612a6f565b604082019050919050565b60006020820190508181036000830152612afa81612abe565b9050919050565b7f4e6f6e6578697374656e7420746f6b656e000000000000000000000000000000600082015250565b6000612b376011836120db565b9150612b4282612b01565b602082019050919050565b60006020820190508181036000830152612b6681612b2a565b9050919050565b600081905092915050565b6000612b83826120d0565b612b8d8185612b6d565b9350612b9d8185602086016120ec565b80840191505092915050565b6000612bb58286612b78565b9150612bc18285612b78565b9150612bcd8284612b78565b9150819050949350505050565b7f7b226e616d65223a202200000000000000000000000000000000000000000000600082015250565b6000612c10600a83612b6d565b9150612c1b82612bda565b600a82019050919050565b7f2023000000000000000000000000000000000000000000000000000000000000600082015250565b6000612c5c600283612b6d565b9150612c6782612c26565b600282019050919050565b7f222c20226465736372697074696f6e223a2022546965724e46547320636f6c6c60008201527f656374696f6e222c2022696d616765223a2022646174613a696d6167652f737660208201527f672b786d6c3b6261736536342c00000000000000000000000000000000000000604082015250565b6000612cf4604d83612b6d565b9150612cff82612c72565b604d82019050919050565b7f222c2261747472696275746573223a5b7b2274726169745f74797065223a202260008201527f54696572222c202276616c7565223a2022000000000000000000000000000000602082015250565b6000612d66603183612b6d565b9150612d7182612d0a565b603182019050919050565b7f22207d5d7d000000000000000000000000000000000000000000000000000000600082015250565b6000612db2600583612b6d565b9150612dbd82612d7c565b600582019050919050565b6000612dd382612c03565b9150612ddf8287612b78565b9150612dea82612c4f565b9150612df68286612b78565b9150612e0182612ce7565b9150612e0d8285612b78565b9150612e1882612d59565b9150612e248284612b78565b9150612e2f82612da5565b915081905095945050505050565b7f646174613a6170706c69636174696f6e2f6a736f6e3b6261736536342c000000600082015250565b6000612e73601d83612b6d565b9150612e7e82612e3d565b601d82019050919050565b6000612e9482612e66565b9150612ea08284612b78565b915081905092915050565b7f4f776e61626c653a206e6577206f776e657220697320746865207a65726f206160008201527f6464726573730000000000000000000000000000000000000000000000000000602082015250565b6000612f076026836120db565b9150612f1282612eab565b604082019050919050565b60006020820190508181036000830152612f3681612efa565b9050919050565b7f4552433732313a207472616e736665722066726f6d20696e636f72726563742060008201527f6f776e6572000000000000000000000000000000000000000000000000000000602082015250565b6000612f996025836120db565b9150612fa482612f3d565b604082019050919050565b60006020820190508181036000830152612fc881612f8c565b9050919050565b7f4552433732313a207472616e7366657220746f20746865207a65726f2061646460008201527f7265737300000000000000000000000000000000000000000000000000000000602082015250565b600061302b6024836120db565b915061303682612fcf565b604082019050919050565b6000602082019050818103600083015261305a8161301e565b9050919050565b7f4f776e61626c653a2063616c6c6572206973206e6f7420746865206f776e6572600082015250565b60006130976020836120db565b91506130a282613061565b602082019050919050565b600060208201905081810360008301526130c68161308a565b9050919050565b7f4552433732313a20617070726f766520746f2063616c6c657200000000000000600082015250565b60006131036019836120db565b915061310e826130cd565b602082019050919050565b60006020820190508181036000830152613132816130f6565b9050919050565b7f4552433732313a207472616e7366657220746f206e6f6e20455243373231526560008201527f63656976657220696d706c656d656e7465720000000000000000000000000000602082015250565b60006131956032836120db565b91506131a082613139565b604082019050919050565b600060208201905081810360008301526131c481613188565b9050919050565b7f4e487b7100000000000000000000000000000000000000000000000000000000600052601260045260246000fd5b60006132058261218b565b91506132108361218b565b9250827fffffffffffffffffffffffffffffffffffffffffffffffffffffffffffffffff03821115613245576132446127db565b5b828201905092915050565b600061325b8261218b565b91506132668361218b565b925082613276576132756131cb565b5b828204905092915050565b600061328c8261218b565b91506132978361218b565b9250817fffffffffffffffffffffffffffffffffffffffffffffffffffffffffffffffff04831182151516156132d0576132cf6127db565b5b828202905092915050565b600081519050919050565b600082825260208201905092915050565b6000613302826132db565b61330c81856132e6565b935061331c8185602086016120ec565b6133258161211f565b840191505092915050565b60006080820190506133456000830187612220565b6133526020830186612220565b61335f60408301856122b6565b818103606083015261337181846132f7565b905095945050505050565b60008151905061338b81612041565b92915050565b6000602082840312156133a7576133a661200b565b5b60006133b58482850161337c565b91505092915050565b7f4552433732313a206d696e7420746f20746865207a65726f2061646472657373600082015250565b60006133f46020836120db565b91506133ff826133be565b602082019050919050565b60006020820190508181036000830152613423816133e7565b9050919050565b7f4552433732313a20746f6b656e20616c7265616479206d696e74656400000000600082015250565b6000613460601c836120db565b915061346b8261342a565b602082019050919050565b6000602082019050818103600083015261348f81613453565b905091905056fe3c73766720786d6c6e733d22687474703a2f2f7777772e77332e6f72672f323030302f737667222077696474683d2235303022206865696768743d22353030222066696c6c3d226e6f6e652220666f6e742d66616d696c793d2273616e732d7365726966223e3c646566733e3c66696c7465722069643d22412220636f6c6f722d696e746572706f6c6174696f6e2d66696c746572733d2273524742222066696c746572556e6974733d227573657253706163654f6e55736522206865696768743d22353030222077696474683d22353030223e3c666544726f70536861646f772064783d2231222064793d22322220737464446576696174696f6e3d22382220666c6f6f642d6f7061636974793d222e3637222077696474683d223230302522206865696768743d223230302522202f3e3c2f66696c7465723e3c6c696e6561724772616469656e742069643d2242222078313d2230222079313d2230222078323d223135303030222079323d223022206772616469656e74556e6974733d227573657253706163654f6e557365223e3c73746f70206f66667365743d222e3035222073746f702d636f6c6f723d222361643030666622202f3e3c73746f70206f66667365743d222e3233222073746f702d636f6c6f723d222334653030656322202f3e3c73746f70206f66667365743d222e3431222073746f702d636f6c6f723d222366663030663522202f3e3c73746f70206f66667365743d222e3539222073746f702d636f6c6f723d222365306530653022202f3e3c73746f70206f66667365743d222e3737222073746f702d636f6c6f723d222366666438313022202f3e3c73746f70206f66667365743d222e3935222073746f702d636f6c6f723d222361643030666622202f3e3c2f6c696e6561724772616469656e743e3c6c696e6561724772616469656e742069643d2243222078313d2230222079313d223630222078323d2230222079323d2231313022206772616469656e74556e6974733d227573657253706163654f6e557365223e3c73746f702073746f702d636f6c6f723d222364303430623822202f3e3c73746f70206f66667365743d2231222073746f702d636f6c6f723d222365306530653022202f3e3c2f6c696e6561724772616469656e743e3c2f646566733e3c706174682066696c6c3d2275726c282342292220643d224d3020306831353030307635303048307a223e3c616e696d6174655472616e73666f726d206174747269627574654e616d653d227472616e73666f726d2220617474726962757465547970653d22584d4c2220747970653d227472616e736c617465222066726f6d3d223020302220746f3d222d3134353030203022206475723d223136732220726570656174436f756e743d22696e646566696e69746522202f3e3c2f706174683e3c636972636c652066696c6c3d2223316431653230222063783d22313030222063793d2239302220723d223435222066696c7465723d2275726c2823412922202f3e3c7465787420783d223130312220793d2239392220746578742d616e63686f723d226d6964646c652220636c6173733d226e66744c6f676f2220666f6e742d73697a653d2233327078222066696c6c3d2275726c28234329222066696c7465723d2275726c28234129223e445f443c616e696d6174655472616e73666f726d206174747269627574654e616d653d227472616e73666f726d2220617474726962757465547970653d22584d4c2220747970653d22726f74617465222066726f6d3d2230203130302039302220746f3d223336302031303020393022206475723d2235732220726570656174436f756e743d22696e646566696e69746522202f3e3c2f746578743e3c6720666f6e742d73697a653d223332222066696c6c3d2223666666222066696c7465723d2275726c28234129223e3c7465787420783d223235302220793d223238302220746578742d616e63686f723d226d6964646c652220636c6173733d22746965724e616d65223e4142434445464748494a4b4c4d4e4f505152535455565758595a6162636465666768696a6b6c6d6e6f707172737475767778797a303132333435363738392b2fa26469706673582212205d1da2e2a194c41ad89cc81b5c893b9fdb00b74975a444fb3f3311d22869866e64736f6c634300080c0033",
  "linkReferences": {},
  "deployedLinkReferences": {}
}